{
    "contractName": "UserWallet",
    "abi": [
        {
            "inputs": [
                {
                    "internalType": "address",
                    "name": "_owner",
                    "type": "address"
                }
            ],
            "stateMutability": "nonpayable",
            "type": "constructor"
        },
        {
            "inputs": [],
            "name": "owner",
            "outputs": [
                {
                    "internalType": "address",
                    "name": "",
                    "type": "address"
                }
            ],
            "stateMutability": "view",
            "type": "function"
        },
        {
            "inputs": [
                {
                    "internalType": "uint256",
                    "name": "amount",
                    "type": "uint256"
                },
                {
                    "internalType": "uint256",
                    "name": "nonce",
                    "type": "uint256"
                },
                {
                    "internalType": "bytes",
                    "name": "signature",
                    "type": "bytes"
                }
            ],
            "name": "withdrawEth",
            "outputs": [],
            "stateMutability": "nonpayable",
            "type": "function"
        },
        {
            "inputs": [
                {
                    "internalType": "contract SomeToken",
                    "name": "token",
                    "type": "address"
                },
                {
                    "internalType": "uint256",
                    "name": "amount",
                    "type": "uint256"
                },
                {
                    "internalType": "uint256",
                    "name": "nonce",
                    "type": "uint256"
                },
                {
                    "internalType": "bytes",
                    "name": "signature",
                    "type": "bytes"
                }
            ],
            "name": "withdrawToken",
            "outputs": [],
            "stateMutability": "nonpayable",
            "type": "function"
        },
        {
            "stateMutability": "payable",
            "type": "receive"
        }
    ],
    "bytecode": "608060405234801561001057600080fd5b506040516107b03803806107b083398101604081905261002f91610054565b600080546001600160a01b0319166001600160a01b0392909216919091179055610084565b60006020828403121561006657600080fd5b81516001600160a01b038116811461007d57600080fd5b9392505050565b61071d806100936000396000f3fe6080604052600436106100385760003560e01c80638da5cb5b146100445780639ae4f95614610080578063ef134775146100a257600080fd5b3661003f57005b600080fd5b34801561005057600080fd5b50600054610064906001600160a01b031681565b6040516001600160a01b03909116815260200160405180910390f35b34801561008c57600080fd5b506100a061009b3660046105b0565b6100c2565b005b3480156100ae57600080fd5b506100a06100bd36600461061f565b61033d565b60008281526001602052604090205460ff161561011c5760405162461bcd60e51b81526020600482015260136024820152726e6f6e636520616c726561647920757365642160681b60448201526064015b60405180910390fd5b6000828152600160208181526040808420805460ff191690931790925590516101b1916101519133918891889130910161066f565b60408051601f1981840301815282825280516020918201207f19457468657265756d205369676e6564204d6573736167653a0a33320000000084830152603c8085019190915282518085039091018152605c909301909152815191012090565b6000549091506001600160a01b03166101ca828461045f565b6001600160a01b0316146102155760405162461bcd60e51b8152602060048201526012602482015271696e76616c6964207369676e61747572652160701b6044820152606401610113565b6040516370a0823160e01b81523060048201526000906001600160a01b038716906370a0823190602401602060405180830381865afa15801561025c573d6000803e3d6000fd5b505050506040513d601f19601f8201168201806040525081019061028091906106a5565b9050808511156102c35760405162461bcd60e51b815260206004820152600e60248201526d62616c616e6365206973206c6f7760901b6044820152606401610113565b60405163a9059cbb60e01b8152336004820152602481018690526001600160a01b0387169063a9059cbb906044016020604051808303816000875af1158015610310573d6000803e3d6000fd5b505050506040513d601f19601f8201168201806040525081019061033491906106be565b50505050505050565b60008281526001602052604090205460ff16156103925760405162461bcd60e51b81526020600482015260136024820152726e6f6e636520616c726561647920757365642160681b6044820152606401610113565b6000828152600160208181526040808420805460ff191690931790925590516103c7916101519133918891889130910161066f565b6000549091506001600160a01b03166103e0828461045f565b6001600160a01b03161461042b5760405162461bcd60e51b8152602060048201526012602482015271696e76616c6964207369676e61747572652160701b6044820152606401610113565b604051339085156108fc029086906000818181858888f19350505050158015610458573d6000803e3d6000fd5b5050505050565b60008060008061046e856104de565b6040805160008152602081018083528b905260ff8516918101919091526060810183905260808101829052929550909350915060019060a0016020604051602081039080840390855afa1580156104c9573d6000803e3d6000fd5b5050604051601f190151979650505050505050565b600080600083516041146104f157600080fd5b5050506020810151604082015160609092015160001a92909190565b634e487b7160e01b600052604160045260246000fd5b600082601f83011261053457600080fd5b813567ffffffffffffffff8082111561054f5761054f61050d565b604051601f8301601f19908116603f011681019082821181831017156105775761057761050d565b8160405283815286602085880101111561059057600080fd5b836020870160208301376000602085830101528094505050505092915050565b600080600080608085870312156105c657600080fd5b84356001600160a01b03811681146105dd57600080fd5b93506020850135925060408501359150606085013567ffffffffffffffff81111561060757600080fd5b61061387828801610523565b91505092959194509250565b60008060006060848603121561063457600080fd5b8335925060208401359150604084013567ffffffffffffffff81111561065957600080fd5b61066586828701610523565b9150509250925092565b6bffffffffffffffffffffffff19606095861b811682526014820194909452603481019290925290921b16605482015260680190565b6000602082840312156106b757600080fd5b5051919050565b6000602082840312156106d057600080fd5b815180151581146106e057600080fd5b939250505056fea26469706673582212208f4a3fc27f727259997624e251de40e5be72e9d1e65f7d2f0ced7c8f4f1e365664736f6c63430008130033",
    "sourcePath": "/Users/danilelfimov/Desktop/React/web3auth-root/web3auth-contract/contracts/UserWallet.sol",
    "compiler": {
        "name": "solc",
        "version": "0.8.19+commit.7dd6d404"
    },
    "functionHashes": {
        "owner()": "8da5cb5b",
        "withdrawEth(uint256,uint256,bytes)": "ef134775",
        "withdrawToken(address,uint256,uint256,bytes)": "9ae4f956"
    },
    "gasEstimates": {
        "creation": {
            "codeDepositCost": "364200",
            "executionCost": "infinite",
            "totalCost": "infinite"
        },
        "external": {
            "owner()": "2303",
            "withdrawEth(uint256,uint256,bytes)": "infinite",
            "withdrawToken(address,uint256,uint256,bytes)": "infinite"
        },
        "internal": {
            "recoverSigner(bytes32,bytes memory)": "infinite",
            "splitSignature(bytes memory)": "infinite",
            "withPrefix(bytes32)": "infinite"
        }
    }
}