{
  "_format": "hh-sol-artifact-1",
  "contractName": "Vita20",
  "sourceName": "contracts/Vita20.sol",
  "abi": [
    {
      "inputs": [],
      "stateMutability": "nonpayable",
      "type": "constructor"
    },
    {
      "anonymous": false,
      "inputs": [
        {
          "indexed": true,
          "internalType": "address",
          "name": "owner",
          "type": "address"
        },
        {
          "indexed": true,
          "internalType": "address",
          "name": "spender",
          "type": "address"
        },
        {
          "indexed": false,
          "internalType": "uint256",
          "name": "value",
          "type": "uint256"
        }
      ],
      "name": "Approval",
      "type": "event"
    },
    {
      "anonymous": false,
      "inputs": [
        {
          "indexed": true,
          "internalType": "address",
          "name": "previousOwner",
          "type": "address"
        },
        {
          "indexed": true,
          "internalType": "address",
          "name": "newOwner",
          "type": "address"
        }
      ],
      "name": "OwnershipTransferred",
      "type": "event"
    },
    {
      "anonymous": false,
      "inputs": [
        {
          "indexed": true,
          "internalType": "address",
          "name": "from",
          "type": "address"
        },
        {
          "indexed": true,
          "internalType": "address",
          "name": "to",
          "type": "address"
        },
        {
          "indexed": false,
          "internalType": "uint256",
          "name": "value",
          "type": "uint256"
        }
      ],
      "name": "Transfer",
      "type": "event"
    },
    {
      "inputs": [],
      "name": "DOMAIN_SEPARATOR",
      "outputs": [
        {
          "internalType": "bytes32",
          "name": "",
          "type": "bytes32"
        }
      ],
      "stateMutability": "view",
      "type": "function"
    },
    {
      "inputs": [
        {
          "internalType": "address",
          "name": "owner",
          "type": "address"
        },
        {
          "internalType": "address",
          "name": "spender",
          "type": "address"
        }
      ],
      "name": "allowance",
      "outputs": [
        {
          "internalType": "uint256",
          "name": "",
          "type": "uint256"
        }
      ],
      "stateMutability": "view",
      "type": "function"
    },
    {
      "inputs": [
        {
          "internalType": "address",
          "name": "spender",
          "type": "address"
        },
        {
          "internalType": "uint256",
          "name": "amount",
          "type": "uint256"
        }
      ],
      "name": "approve",
      "outputs": [
        {
          "internalType": "bool",
          "name": "",
          "type": "bool"
        }
      ],
      "stateMutability": "nonpayable",
      "type": "function"
    },
    {
      "inputs": [
        {
          "internalType": "address",
          "name": "account",
          "type": "address"
        }
      ],
      "name": "balanceOf",
      "outputs": [
        {
          "internalType": "uint256",
          "name": "",
          "type": "uint256"
        }
      ],
      "stateMutability": "view",
      "type": "function"
    },
    {
      "inputs": [
        {
          "internalType": "uint256",
          "name": "amount",
          "type": "uint256"
        }
      ],
      "name": "burn",
      "outputs": [],
      "stateMutability": "nonpayable",
      "type": "function"
    },
    {
      "inputs": [
        {
          "internalType": "address",
          "name": "account",
          "type": "address"
        },
        {
          "internalType": "uint256",
          "name": "amount",
          "type": "uint256"
        }
      ],
      "name": "burnFrom",
      "outputs": [],
      "stateMutability": "nonpayable",
      "type": "function"
    },
    {
      "inputs": [],
      "name": "decimals",
      "outputs": [
        {
          "internalType": "uint8",
          "name": "",
          "type": "uint8"
        }
      ],
      "stateMutability": "view",
      "type": "function"
    },
    {
      "inputs": [
        {
          "internalType": "address",
          "name": "spender",
          "type": "address"
        },
        {
          "internalType": "uint256",
          "name": "subtractedValue",
          "type": "uint256"
        }
      ],
      "name": "decreaseAllowance",
      "outputs": [
        {
          "internalType": "bool",
          "name": "",
          "type": "bool"
        }
      ],
      "stateMutability": "nonpayable",
      "type": "function"
    },
    {
      "inputs": [
        {
          "internalType": "address",
          "name": "spender",
          "type": "address"
        },
        {
          "internalType": "uint256",
          "name": "addedValue",
          "type": "uint256"
        }
      ],
      "name": "increaseAllowance",
      "outputs": [
        {
          "internalType": "bool",
          "name": "",
          "type": "bool"
        }
      ],
      "stateMutability": "nonpayable",
      "type": "function"
    },
    {
      "inputs": [
        {
          "internalType": "address",
          "name": "to",
          "type": "address"
        },
        {
          "internalType": "uint256",
          "name": "amount",
          "type": "uint256"
        }
      ],
      "name": "mint",
      "outputs": [],
      "stateMutability": "nonpayable",
      "type": "function"
    },
    {
      "inputs": [],
      "name": "name",
      "outputs": [
        {
          "internalType": "string",
          "name": "",
          "type": "string"
        }
      ],
      "stateMutability": "view",
      "type": "function"
    },
    {
      "inputs": [
        {
          "internalType": "address",
          "name": "owner",
          "type": "address"
        }
      ],
      "name": "nonces",
      "outputs": [
        {
          "internalType": "uint256",
          "name": "",
          "type": "uint256"
        }
      ],
      "stateMutability": "view",
      "type": "function"
    },
    {
      "inputs": [],
      "name": "owner",
      "outputs": [
        {
          "internalType": "address",
          "name": "",
          "type": "address"
        }
      ],
      "stateMutability": "view",
      "type": "function"
    },
    {
      "inputs": [
        {
          "internalType": "address",
          "name": "owner",
          "type": "address"
        },
        {
          "internalType": "address",
          "name": "spender",
          "type": "address"
        },
        {
          "internalType": "uint256",
          "name": "value",
          "type": "uint256"
        },
        {
          "internalType": "uint256",
          "name": "deadline",
          "type": "uint256"
        },
        {
          "internalType": "uint8",
          "name": "v",
          "type": "uint8"
        },
        {
          "internalType": "bytes32",
          "name": "r",
          "type": "bytes32"
        },
        {
          "internalType": "bytes32",
          "name": "s",
          "type": "bytes32"
        }
      ],
      "name": "permit",
      "outputs": [],
      "stateMutability": "nonpayable",
      "type": "function"
    },
    {
      "inputs": [],
      "name": "renounceOwnership",
      "outputs": [],
      "stateMutability": "nonpayable",
      "type": "function"
    },
    {
      "inputs": [],
      "name": "symbol",
      "outputs": [
        {
          "internalType": "string",
          "name": "",
          "type": "string"
        }
      ],
      "stateMutability": "view",
      "type": "function"
    },
    {
      "inputs": [],
      "name": "totalSupply",
      "outputs": [
        {
          "internalType": "uint256",
          "name": "",
          "type": "uint256"
        }
      ],
      "stateMutability": "view",
      "type": "function"
    },
    {
      "inputs": [
        {
          "internalType": "address",
          "name": "to",
          "type": "address"
        },
        {
          "internalType": "uint256",
          "name": "amount",
          "type": "uint256"
        }
      ],
      "name": "transfer",
      "outputs": [
        {
          "internalType": "bool",
          "name": "",
          "type": "bool"
        }
      ],
      "stateMutability": "nonpayable",
      "type": "function"
    },
    {
      "inputs": [
        {
          "internalType": "address",
          "name": "from",
          "type": "address"
        },
        {
          "internalType": "address",
          "name": "to",
          "type": "address"
        },
        {
          "internalType": "uint256",
          "name": "amount",
          "type": "uint256"
        }
      ],
      "name": "transferFrom",
      "outputs": [
        {
          "internalType": "bool",
          "name": "",
          "type": "bool"
        }
      ],
      "stateMutability": "nonpayable",
      "type": "function"
    },
    {
      "inputs": [
        {
          "internalType": "address",
          "name": "newOwner",
          "type": "address"
        }
      ],
      "name": "transferOwnership",
      "outputs": [],
      "stateMutability": "nonpayable",
      "type": "function"
    }
  ],
  "bytecode": "0x6101406040523480156200001257600080fd5b506040518060400160405280600681526020017f5669746132300000000000000000000000000000000000000000000000000000815250806040518060400160405280600181526020017f31000000000000000000000000000000000000000000000000000000000000008152506040518060400160405280600681526020017f56697461323000000000000000000000000000000000000000000000000000008152506040518060400160405280600381526020017f564654000000000000000000000000000000000000000000000000000000000081525081600390805190602001906200010492919062000303565b5080600490805190602001906200011d92919062000303565b5050506200014062000134620001f960201b60201c565b6200020160201b60201c565b60008280519060200120905060008280519060200120905060007f8b73c3c69bb8fe3d512ecc4cf759cc79239f7b179b0ffacaa9a75d522b39400f90508260e081815250508161010081815250504660a08181525050620001a9818484620002c760201b60201c565b608081815250503073ffffffffffffffffffffffffffffffffffffffff1660c08173ffffffffffffffffffffffffffffffffffffffff1681525050806101208181525050505050505050620004f0565b600033905090565b6000600560009054906101000a900473ffffffffffffffffffffffffffffffffffffffff16905081600560006101000a81548173ffffffffffffffffffffffffffffffffffffffff021916908373ffffffffffffffffffffffffffffffffffffffff1602179055508173ffffffffffffffffffffffffffffffffffffffff168173ffffffffffffffffffffffffffffffffffffffff167f8be0079c531659141344cd1fd0a4f28419497f9722a3daafe3b4186f6b6457e060405160405180910390a35050565b60008383834630604051602001620002e49594939291906200042e565b6040516020818303038152906040528051906020012090509392505050565b8280546200031190620004ba565b90600052602060002090601f01602090048101928262000335576000855562000381565b82601f106200035057805160ff191683800117855562000381565b8280016001018555821562000381579182015b828111156200038057825182559160200191906001019062000363565b5b50905062000390919062000394565b5090565b5b80821115620003af57600081600090555060010162000395565b5090565b6000819050919050565b620003c881620003b3565b82525050565b6000819050919050565b620003e381620003ce565b82525050565b600073ffffffffffffffffffffffffffffffffffffffff82169050919050565b60006200041682620003e9565b9050919050565b620004288162000409565b82525050565b600060a082019050620004456000830188620003bd565b620004546020830187620003bd565b620004636040830186620003bd565b620004726060830185620003d8565b6200048160808301846200041d565b9695505050505050565b7f4e487b7100000000000000000000000000000000000000000000000000000000600052602260045260246000fd5b60006002820490506001821680620004d357607f821691505b60208210811415620004ea57620004e96200048b565b5b50919050565b60805160a05160c05160e05161010051610120516127c5620005406000396000610f5601526000610f9801526000610f7701526000610eac01526000610f0201526000610f2b01526127c56000f3fe608060405234801561001057600080fd5b506004361061012c5760003560e01c8063715018a6116100ad578063a457c2d711610071578063a457c2d714610333578063a9059cbb14610363578063d505accf14610393578063dd62ed3e146103af578063f2fde38b146103df5761012c565b8063715018a6146102a157806379cc6790146102ab5780637ecebe00146102c75780638da5cb5b146102f757806395d89b41146103155761012c565b80633644e515116100f45780633644e515146101eb578063395093511461020957806340c10f191461023957806342966c681461025557806370a08231146102715761012c565b806306fdde0314610131578063095ea7b31461014f57806318160ddd1461017f57806323b872dd1461019d578063313ce567146101cd575b600080fd5b6101396103fb565b6040516101469190611853565b60405180910390f35b6101696004803603810190610164919061190e565b61048d565b6040516101769190611969565b60405180910390f35b6101876104b0565b6040516101949190611993565b60405180910390f35b6101b760048036038101906101b291906119ae565b6104ba565b6040516101c49190611969565b60405180910390f35b6101d56104e9565b6040516101e29190611a1d565b60405180910390f35b6101f36104f2565b6040516102009190611a51565b60405180910390f35b610223600480360381019061021e919061190e565b610501565b6040516102309190611969565b60405180910390f35b610253600480360381019061024e919061190e565b610538565b005b61026f600480360381019061026a9190611a6c565b61054e565b005b61028b60048036038101906102869190611a99565b610562565b6040516102989190611993565b60405180910390f35b6102a96105aa565b005b6102c560048036038101906102c0919061190e565b6105be565b005b6102e160048036038101906102dc9190611a99565b6105de565b6040516102ee9190611993565b60405180910390f35b6102ff61062e565b60405161030c9190611ad5565b60405180910390f35b61031d610658565b60405161032a9190611853565b60405180910390f35b61034d6004803603810190610348919061190e565b6106ea565b60405161035a9190611969565b60405180910390f35b61037d6004803603810190610378919061190e565b610761565b60405161038a9190611969565b60405180910390f35b6103ad60048036038101906103a89190611b48565b610784565b005b6103c960048036038101906103c49190611bea565b6108c6565b6040516103d69190611993565b60405180910390f35b6103f960048036038101906103f49190611a99565b61094d565b005b60606003805461040a90611c59565b80601f016020809104026020016040519081016040528092919081815260200182805461043690611c59565b80156104835780601f1061045857610100808354040283529160200191610483565b820191906000526020600020905b81548152906001019060200180831161046657829003601f168201915b5050505050905090565b6000806104986109d1565b90506104a58185856109d9565b600191505092915050565b6000600254905090565b6000806104c56109d1565b90506104d2858285610ba4565b6104dd858585610c30565b60019150509392505050565b60006012905090565b60006104fc610ea8565b905090565b60008061050c6109d1565b905061052d81858561051e85896108c6565b6105289190611cba565b6109d9565b600191505092915050565b610540610fc2565b61054a8282611040565b5050565b61055f6105596109d1565b82611197565b50565b60008060008373ffffffffffffffffffffffffffffffffffffffff1673ffffffffffffffffffffffffffffffffffffffff168152602001908152602001600020549050919050565b6105b2610fc2565b6105bc6000611365565b565b6105d0826105ca6109d1565b83610ba4565b6105da8282611197565b5050565b6000610627600660008473ffffffffffffffffffffffffffffffffffffffff1673ffffffffffffffffffffffffffffffffffffffff16815260200190815260200160002061142b565b9050919050565b6000600560009054906101000a900473ffffffffffffffffffffffffffffffffffffffff16905090565b60606004805461066790611c59565b80601f016020809104026020016040519081016040528092919081815260200182805461069390611c59565b80156106e05780601f106106b5576101008083540402835291602001916106e0565b820191906000526020600020905b8154815290600101906020018083116106c357829003601f168201915b5050505050905090565b6000806106f56109d1565b9050600061070382866108c6565b905083811015610748576040517f08c379a000000000000000000000000000000000000000000000000000000000815260040161073f90611d82565b60405180910390fd5b61075582868684036109d9565b60019250505092915050565b60008061076c6109d1565b9050610779818585610c30565b600191505092915050565b834211156107c7576040517f08c379a00000000000000000000000000000000000000000000000000000000081526004016107be90611dee565b60405180910390fd5b60007f6e71edae12b1b97f4d1f60370fef10105fa2faae0126114a169c64845d6126c98888886107f68c611439565b8960405160200161080c96959493929190611e0e565b604051602081830303815290604052805190602001209050600061082f82611497565b9050600061083f828787876114b1565b90508973ffffffffffffffffffffffffffffffffffffffff168173ffffffffffffffffffffffffffffffffffffffff16146108af576040517f08c379a00000000000000000000000000000000000000000000000000000000081526004016108a690611ebb565b60405180910390fd5b6108ba8a8a8a6109d9565b50505050505050505050565b6000600160008473ffffffffffffffffffffffffffffffffffffffff1673ffffffffffffffffffffffffffffffffffffffff16815260200190815260200160002060008373ffffffffffffffffffffffffffffffffffffffff1673ffffffffffffffffffffffffffffffffffffffff16815260200190815260200160002054905092915050565b610955610fc2565b600073ffffffffffffffffffffffffffffffffffffffff168173ffffffffffffffffffffffffffffffffffffffff1614156109c5576040517f08c379a00000000000000000000000000000000000000000000000000000000081526004016109bc90611f4d565b60405180910390fd5b6109ce81611365565b50565b600033905090565b600073ffffffffffffffffffffffffffffffffffffffff168373ffffffffffffffffffffffffffffffffffffffff161415610a49576040517f08c379a0000000000000000000000000000000000000000000000000000000008152600401610a4090611fdf565b60405180910390fd5b600073ffffffffffffffffffffffffffffffffffffffff168273ffffffffffffffffffffffffffffffffffffffff161415610ab9576040517f08c379a0000000000000000000000000000000000000000000000000000000008152600401610ab090612071565b60405180910390fd5b80600160008573ffffffffffffffffffffffffffffffffffffffff1673ffffffffffffffffffffffffffffffffffffffff16815260200190815260200160002060008473ffffffffffffffffffffffffffffffffffffffff1673ffffffffffffffffffffffffffffffffffffffff168152602001908152602001600020819055508173ffffffffffffffffffffffffffffffffffffffff168373ffffffffffffffffffffffffffffffffffffffff167f8c5be1e5ebec7d5bd14f71427d1e84f3dd0314c0f7b2291e5b200ac8c7c3b92583604051610b979190611993565b60405180910390a3505050565b6000610bb084846108c6565b90507fffffffffffffffffffffffffffffffffffffffffffffffffffffffffffffffff8114610c2a5781811015610c1c576040517f08c379a0000000000000000000000000000000000000000000000000000000008152600401610c13906120dd565b60405180910390fd5b610c2984848484036109d9565b5b50505050565b600073ffffffffffffffffffffffffffffffffffffffff168373ffffffffffffffffffffffffffffffffffffffff161415610ca0576040517f08c379a0000000000000000000000000000000000000000000000000000000008152600401610c979061216f565b60405180910390fd5b600073ffffffffffffffffffffffffffffffffffffffff168273ffffffffffffffffffffffffffffffffffffffff161415610d10576040517f08c379a0000000000000000000000000000000000000000000000000000000008152600401610d0790612201565b60405180910390fd5b610d1b8383836114dc565b60008060008573ffffffffffffffffffffffffffffffffffffffff1673ffffffffffffffffffffffffffffffffffffffff16815260200190815260200160002054905081811015610da1576040517f08c379a0000000000000000000000000000000000000000000000000000000008152600401610d9890612293565b60405180910390fd5b8181036000808673ffffffffffffffffffffffffffffffffffffffff1673ffffffffffffffffffffffffffffffffffffffff16815260200190815260200160002081905550816000808573ffffffffffffffffffffffffffffffffffffffff1673ffffffffffffffffffffffffffffffffffffffff168152602001908152602001600020600082825401925050819055508273ffffffffffffffffffffffffffffffffffffffff168473ffffffffffffffffffffffffffffffffffffffff167fddf252ad1be2c89b69c2b068fc378daa952ba7f163c4a11628f55a4df523b3ef84604051610e8f9190611993565b60405180910390a3610ea28484846114e1565b50505050565b60007f000000000000000000000000000000000000000000000000000000000000000073ffffffffffffffffffffffffffffffffffffffff163073ffffffffffffffffffffffffffffffffffffffff16148015610f2457507f000000000000000000000000000000000000000000000000000000000000000046145b15610f51577f00000000000000000000000000000000000000000000000000000000000000009050610fbf565b610fbc7f00000000000000000000000000000000000000000000000000000000000000007f00000000000000000000000000000000000000000000000000000000000000007f00000000000000000000000000000000000000000000000000000000000000006114e6565b90505b90565b610fca6109d1565b73ffffffffffffffffffffffffffffffffffffffff16610fe861062e565b73ffffffffffffffffffffffffffffffffffffffff161461103e576040517f08c379a0000000000000000000000000000000000000000000000000000000008152600401611035906122ff565b60405180910390fd5b565b600073ffffffffffffffffffffffffffffffffffffffff168273ffffffffffffffffffffffffffffffffffffffff1614156110b0576040517f08c379a00000000000000000000000000000000000000000000000000000000081526004016110a79061236b565b60405180910390fd5b6110bc600083836114dc565b80600260008282546110ce9190611cba565b92505081905550806000808473ffffffffffffffffffffffffffffffffffffffff1673ffffffffffffffffffffffffffffffffffffffff168152602001908152602001600020600082825401925050819055508173ffffffffffffffffffffffffffffffffffffffff16600073ffffffffffffffffffffffffffffffffffffffff167fddf252ad1be2c89b69c2b068fc378daa952ba7f163c4a11628f55a4df523b3ef8360405161117f9190611993565b60405180910390a3611193600083836114e1565b5050565b600073ffffffffffffffffffffffffffffffffffffffff168273ffffffffffffffffffffffffffffffffffffffff161415611207576040517f08c379a00000000000000000000000000000000000000000000000000000000081526004016111fe906123fd565b60405180910390fd5b611213826000836114dc565b60008060008473ffffffffffffffffffffffffffffffffffffffff1673ffffffffffffffffffffffffffffffffffffffff16815260200190815260200160002054905081811015611299576040517f08c379a00000000000000000000000000000000000000000000000000000000081526004016112909061248f565b60405180910390fd5b8181036000808573ffffffffffffffffffffffffffffffffffffffff1673ffffffffffffffffffffffffffffffffffffffff1681526020019081526020016000208190555081600260008282540392505081905550600073ffffffffffffffffffffffffffffffffffffffff168373ffffffffffffffffffffffffffffffffffffffff167fddf252ad1be2c89b69c2b068fc378daa952ba7f163c4a11628f55a4df523b3ef8460405161134c9190611993565b60405180910390a3611360836000846114e1565b505050565b6000600560009054906101000a900473ffffffffffffffffffffffffffffffffffffffff16905081600560006101000a81548173ffffffffffffffffffffffffffffffffffffffff021916908373ffffffffffffffffffffffffffffffffffffffff1602179055508173ffffffffffffffffffffffffffffffffffffffff168173ffffffffffffffffffffffffffffffffffffffff167f8be0079c531659141344cd1fd0a4f28419497f9722a3daafe3b4186f6b6457e060405160405180910390a35050565b600081600001549050919050565b600080600660008473ffffffffffffffffffffffffffffffffffffffff1673ffffffffffffffffffffffffffffffffffffffff16815260200190815260200160002090506114868161142b565b915061149181611520565b50919050565b60006114aa6114a4610ea8565b83611536565b9050919050565b60008060006114c287878787611569565b915091506114cf8161164c565b8192505050949350505050565b505050565b505050565b600083838346306040516020016115019594939291906124af565b6040516020818303038152906040528051906020012090509392505050565b6001816000016000828254019250508190555050565b6000828260405160200161154b92919061257a565b60405160208183030381529060405280519060200120905092915050565b6000807f7fffffffffffffffffffffffffffffff5d576e7357a4501ddfe92f46681b20a08360001c11156115a4576000600391509150611643565b6000600187878787604051600081526020016040526040516115c994939291906125b1565b6020604051602081039080840390855afa1580156115eb573d6000803e3d6000fd5b505050602060405103519050600073ffffffffffffffffffffffffffffffffffffffff168173ffffffffffffffffffffffffffffffffffffffff16141561163a57600060019250925050611643565b80600092509250505b94509492505050565b600060048111156116605761165f6125f6565b5b816004811115611673576116726125f6565b5b141561167e576117b7565b60016004811115611692576116916125f6565b5b8160048111156116a5576116a46125f6565b5b14156116e6576040517f08c379a00000000000000000000000000000000000000000000000000000000081526004016116dd90612671565b60405180910390fd5b600260048111156116fa576116f96125f6565b5b81600481111561170d5761170c6125f6565b5b141561174e576040517f08c379a0000000000000000000000000000000000000000000000000000000008152600401611745906126dd565b60405180910390fd5b60036004811115611762576117616125f6565b5b816004811115611775576117746125f6565b5b14156117b6576040517f08c379a00000000000000000000000000000000000000000000000000000000081526004016117ad9061276f565b60405180910390fd5b5b50565b600081519050919050565b600082825260208201905092915050565b60005b838110156117f45780820151818401526020810190506117d9565b83811115611803576000848401525b50505050565b6000601f19601f8301169050919050565b6000611825826117ba565b61182f81856117c5565b935061183f8185602086016117d6565b61184881611809565b840191505092915050565b6000602082019050818103600083015261186d818461181a565b905092915050565b600080fd5b600073ffffffffffffffffffffffffffffffffffffffff82169050919050565b60006118a58261187a565b9050919050565b6118b58161189a565b81146118c057600080fd5b50565b6000813590506118d2816118ac565b92915050565b6000819050919050565b6118eb816118d8565b81146118f657600080fd5b50565b600081359050611908816118e2565b92915050565b6000806040838503121561192557611924611875565b5b6000611933858286016118c3565b9250506020611944858286016118f9565b9150509250929050565b60008115159050919050565b6119638161194e565b82525050565b600060208201905061197e600083018461195a565b92915050565b61198d816118d8565b82525050565b60006020820190506119a86000830184611984565b92915050565b6000806000606084860312156119c7576119c6611875565b5b60006119d5868287016118c3565b93505060206119e6868287016118c3565b92505060406119f7868287016118f9565b9150509250925092565b600060ff82169050919050565b611a1781611a01565b82525050565b6000602082019050611a326000830184611a0e565b92915050565b6000819050919050565b611a4b81611a38565b82525050565b6000602082019050611a666000830184611a42565b92915050565b600060208284031215611a8257611a81611875565b5b6000611a90848285016118f9565b91505092915050565b600060208284031215611aaf57611aae611875565b5b6000611abd848285016118c3565b91505092915050565b611acf8161189a565b82525050565b6000602082019050611aea6000830184611ac6565b92915050565b611af981611a01565b8114611b0457600080fd5b50565b600081359050611b1681611af0565b92915050565b611b2581611a38565b8114611b3057600080fd5b50565b600081359050611b4281611b1c565b92915050565b600080600080600080600060e0888a031215611b6757611b66611875565b5b6000611b758a828b016118c3565b9750506020611b868a828b016118c3565b9650506040611b978a828b016118f9565b9550506060611ba88a828b016118f9565b9450506080611bb98a828b01611b07565b93505060a0611bca8a828b01611b33565b92505060c0611bdb8a828b01611b33565b91505092959891949750929550565b60008060408385031215611c0157611c00611875565b5b6000611c0f858286016118c3565b9250506020611c20858286016118c3565b9150509250929050565b7f4e487b7100000000000000000000000000000000000000000000000000000000600052602260045260246000fd5b60006002820490506001821680611c7157607f821691505b60208210811415611c8557611c84611c2a565b5b50919050565b7f4e487b7100000000000000000000000000000000000000000000000000000000600052601160045260246000fd5b6000611cc5826118d8565b9150611cd0836118d8565b9250827fffffffffffffffffffffffffffffffffffffffffffffffffffffffffffffffff03821115611d0557611d04611c8b565b5b828201905092915050565b7f45524332303a2064656372656173656420616c6c6f77616e63652062656c6f7760008201527f207a65726f000000000000000000000000000000000000000000000000000000602082015250565b6000611d6c6025836117c5565b9150611d7782611d10565b604082019050919050565b60006020820190508181036000830152611d9b81611d5f565b9050919050565b7f45524332305065726d69743a206578706972656420646561646c696e65000000600082015250565b6000611dd8601d836117c5565b9150611de382611da2565b602082019050919050565b60006020820190508181036000830152611e0781611dcb565b9050919050565b600060c082019050611e236000830189611a42565b611e306020830188611ac6565b611e3d6040830187611ac6565b611e4a6060830186611984565b611e576080830185611984565b611e6460a0830184611984565b979650505050505050565b7f45524332305065726d69743a20696e76616c6964207369676e61747572650000600082015250565b6000611ea5601e836117c5565b9150611eb082611e6f565b602082019050919050565b60006020820190508181036000830152611ed481611e98565b9050919050565b7f4f776e61626c653a206e6577206f776e657220697320746865207a65726f206160008201527f6464726573730000000000000000000000000000000000000000000000000000602082015250565b6000611f376026836117c5565b9150611f4282611edb565b604082019050919050565b60006020820190508181036000830152611f6681611f2a565b9050919050565b7f45524332303a20617070726f76652066726f6d20746865207a65726f2061646460008201527f7265737300000000000000000000000000000000000000000000000000000000602082015250565b6000611fc96024836117c5565b9150611fd482611f6d565b604082019050919050565b60006020820190508181036000830152611ff881611fbc565b9050919050565b7f45524332303a20617070726f766520746f20746865207a65726f20616464726560008201527f7373000000000000000000000000000000000000000000000000000000000000602082015250565b600061205b6022836117c5565b915061206682611fff565b604082019050919050565b6000602082019050818103600083015261208a8161204e565b9050919050565b7f45524332303a20696e73756666696369656e7420616c6c6f77616e6365000000600082015250565b60006120c7601d836117c5565b91506120d282612091565b602082019050919050565b600060208201905081810360008301526120f6816120ba565b9050919050565b7f45524332303a207472616e736665722066726f6d20746865207a65726f20616460008201527f6472657373000000000000000000000000000000000000000000000000000000602082015250565b60006121596025836117c5565b9150612164826120fd565b604082019050919050565b600060208201905081810360008301526121888161214c565b9050919050565b7f45524332303a207472616e7366657220746f20746865207a65726f206164647260008201527f6573730000000000000000000000000000000000000000000000000000000000602082015250565b60006121eb6023836117c5565b91506121f68261218f565b604082019050919050565b6000602082019050818103600083015261221a816121de565b9050919050565b7f45524332303a207472616e7366657220616d6f756e742065786365656473206260008201527f616c616e63650000000000000000000000000000000000000000000000000000602082015250565b600061227d6026836117c5565b915061228882612221565b604082019050919050565b600060208201905081810360008301526122ac81612270565b9050919050565b7f4f776e61626c653a2063616c6c6572206973206e6f7420746865206f776e6572600082015250565b60006122e96020836117c5565b91506122f4826122b3565b602082019050919050565b60006020820190508181036000830152612318816122dc565b9050919050565b7f45524332303a206d696e7420746f20746865207a65726f206164647265737300600082015250565b6000612355601f836117c5565b91506123608261231f565b602082019050919050565b6000602082019050818103600083015261238481612348565b9050919050565b7f45524332303a206275726e2066726f6d20746865207a65726f2061646472657360008201527f7300000000000000000000000000000000000000000000000000000000000000602082015250565b60006123e76021836117c5565b91506123f28261238b565b604082019050919050565b60006020820190508181036000830152612416816123da565b9050919050565b7f45524332303a206275726e20616d6f756e7420657863656564732062616c616e60008201527f6365000000000000000000000000000000000000000000000000000000000000602082015250565b60006124796022836117c5565b91506124848261241d565b604082019050919050565b600060208201905081810360008301526124a88161246c565b9050919050565b600060a0820190506124c46000830188611a42565b6124d16020830187611a42565b6124de6040830186611a42565b6124eb6060830185611984565b6124f86080830184611ac6565b9695505050505050565b600081905092915050565b7f1901000000000000000000000000000000000000000000000000000000000000600082015250565b6000612543600283612502565b915061254e8261250d565b600282019050919050565b6000819050919050565b61257461256f82611a38565b612559565b82525050565b600061258582612536565b91506125918285612563565b6020820191506125a18284612563565b6020820191508190509392505050565b60006080820190506125c66000830187611a42565b6125d36020830186611a0e565b6125e06040830185611a42565b6125ed6060830184611a42565b95945050505050565b7f4e487b7100000000000000000000000000000000000000000000000000000000600052602160045260246000fd5b7f45434453413a20696e76616c6964207369676e61747572650000000000000000600082015250565b600061265b6018836117c5565b915061266682612625565b602082019050919050565b6000602082019050818103600083015261268a8161264e565b9050919050565b7f45434453413a20696e76616c6964207369676e6174757265206c656e67746800600082015250565b60006126c7601f836117c5565b91506126d282612691565b602082019050919050565b600060208201905081810360008301526126f6816126ba565b9050919050565b7f45434453413a20696e76616c6964207369676e6174757265202773272076616c60008201527f7565000000000000000000000000000000000000000000000000000000000000602082015250565b60006127596022836117c5565b9150612764826126fd565b604082019050919050565b600060208201905081810360008301526127888161274c565b905091905056fea264697066735822122034cf6b7aec5b9c428a23bb38d02897d28b32fdad7d249f720008f6dfed479e4764736f6c63430008090033",
  "linkReferences": {},
  "deployedLinkReferences": {}
}